:100000000C9471020C94B8020C94B8020C94B802CF
:100010000C94B8020C94B8020C94B8020C94B80278
:100020000C94B8020C94B8020C94161D0C94E91DA3
:100030000C9423140C94B8020C94B8020C94B802DB
:100040000C94B8020C94B8020C94B8020C94B80248
:100050000C94B8020C9484140C94B8020C94B8025A
:100060000C94B8020C94B8020C94B8020C94B80228
:100070000C94B8020C94B8020C94B8020C94B80218
:100080000C94B8020C94B8020C94B8020C94B80208
:100090000C94B8020C94B8020C94B8020C94B802F8
:1000A0000C94B8020C94B8020C94B8020152014F9F
:1000B0000001520150001B001C00100036003700E8
:1000C00033003400500051004F00040005000E00C2
:1000D0000F004A002F003000000052000000010015
:1000E0000100010001000100010001000100010008
:1000F00001000100010001000100010001000100F8
:1001000001000100010001000100010001000100E7
:1001100001000100010001000100010001000100D7
:1003300001000100010012036B00650079006200FA
:100340006F006100720064000000160371006D0010
:100350006B006200750069006C006400650072004B
:1003600000000403090409026D00040100A0FA0959
:1003700004000001030101000921110100012240D4
:10038000000705810308000A0904010001030102B6
:1003900000092111010001224D0007058203080018
:1003A0000A090402000103000000092111010001F3
:1003B0002236000705830308000A0904030001032D
:1003C0000000000921110100012239000705840302
:1003D0002000011201100100000008EDFE60600124
:1003E000000102000105010906A101050719E02924
:1003F000E7150025019508750181020508190129F5
:10040000059505750191029501750391010507197F
:100410000029F71500250195F875018102C0050135
:100420000980A10185021601002603001A81002A15
:100430008300751095018100C0050C0901A101859B
:1004400003160100269C021A01002A9C02751095D1
:10045000018100C005010902A1010901A1000509EE
:1004600019012905150025019505750181029501E0
:10047000750381010501093009311581257F950238
:100480007508810609381581257F95017508810653
:10049000050C0A38021581257F950175088106C073
:1004A000C005010906A101050719E029E715002586
:1004B00001950875018102950175088101050819EA
:1004C00001290595057501910295017503910105B5
:1004D00007190029FF150026FF0095067508810001
:1004E000C00011241FBECFEFDAE0DEBFCDBF04B6DF
:1004F00003FE27C08091110290911202A091130275
:10050000B09114028730904BA740B04BD1F41092B9
:10051000110210921202109213021092140214BED1
:1005200084B7877F84BF0FB6F894A8958091600048
:10053000886180936000109260000FBEE0E0F8E3F5
:10054000099511E0A0E0B1E0ECEAF2E402C0059008
:100550000D92A433B107D9F722E0A4E3B1E001C0C2
:100560001D92A131B207E1F70E946C1A0C94282168
:100570000C940000FC01662329F0613049F090E002
:1005800080E0089582818823D1F381EB90E0089583
:1005900082818823A1F38CEA90E00895089508955C
:1005A00081E00895089581E008950C94D0020E949E
:1005B000730C2FEF84E39CE0215080409040E1F7E2
:1005C00000C000000C94A714EF92FF920F931F93AA
:1005D000CF93DF938C01FC01E080F18080915C017E
:1005E000811140C082818823C1F1C7010E94F811A6
:1005F000C82F682FC7010E94A111B7018C2F0E943C
:100600001C04EC01B8010E94D502882309F44BC0F8
:10061000B801CE010E942506882309F444C0C531E3
:10062000F0E7DF0720F5C23080E7D80708F04DC0BB
:10063000C115E0E7DE0791F1C130D047E1F181E07B
:100640008093360180933701C801DF91CF911F91CC
:100650000F91FF90EF900C94D302C7010E94CF112D
:10066000C82FCBCFC7010E94F811B701C8CFCC3338
:1006700080E7D80709F49BC0CD33D04701F7F801D4
:100680008281882309F4BAC0109237010E94531462
:10069000909335018093340180E296C0F801828105
:1006A00081110E94D70280E0DF91CF911F910F91BD
:1006B000FF90EF900895F80182818823A1F3809143
:1006C000D10181608093D101EECFF801828188232E
:1006D00009F4BACF0E94B313811102C00E9499138A
:1006E0000E94D01390E09093030280930202FE01D7
:1006F000E350F047809102028160E231F10538F465
:10070000E65DFE4D0C94D8208091020282608093B9
:100710000202809102020E94D4130E94730CC3CF84
:10072000809102028460F3CF809102028860EFCF53
:10073000809102028061EBCF809102028062E7CF5C
:10074000809102028064E3CF809102028068DFCF53
:10075000809102028C60DBCF809102028E7FD7CF26
:10076000809102028D7FD3CF809102028B7FCFCF09
:1007700080910202877FCBCF809102028F7EC7CF0C
:10078000809102028F7DC3CF809102028F7BBFCF09
:10079000809102028F77BBCF80910202837FB7CF17
:1007A00090910202892F97FB87F98058B0CFF8010A
:1007B0008281882361F0109236010E945314909335
:1007C00035018093340182E00E94D8096CCF80917A
:1007D000360181110FC080913401909135010E9442
:1007E0005F14883C910530F486E20E94AD0886E2F1
:1007F0000E94890982E00E94DF0955CF809137016C
:1008000081110FC080913401909135010E945F14D5
:10081000883C910530F487E20E94AD0887E20E948F
:10082000890980E2E8CF0C9474060C9476060C9447
:10083000D2020C9417040895972F70E02AE0929F3B
:10084000600D711D1124FB0194E1899FE00DF11DE4
:100850001124EE0FFF1FEA54FF4F859194910895E4
:10086000FC01EE0FFF1FEA5CFC4F85919491089507
:100870000E941C040E94A9059C01811540E4940774
:1008800008F097C0211580E3380708F0FAC0203E31
:10089000310508F074C0203C310508F0E5C0283A65
:1008A000310588F4253A310508F0E2C021303105E0
:1008B00009F477C0C9010497813A910508F471C021
:1008C00030E020E06EC0C901885A91094597C0F711
:1008D000283A310509F4FEC0293A310509F4FDC072
:1008E0002A3A310509F4FCC02B3A310509F4FBC062
:1008F0002C3A310509F4FAC02B3B310509F4F9C053
:100900002C3B310509F4F8C02D3A310509F4F7C044
:10091000203B310509F4F6C02E3A310509F4F5C043
:100920002F3A310509F4F4C0213B310509F4F3C035
:10093000223B310509F4F2C0233B310509F4F1C033
:10094000243B310509F4F0C0253B310509F4EFC023
:10095000263B310509F4EEC0273B310509F4EDC013
:10096000283B310509F4ECC0293B310509F4EBC003
:100970002A3B310509F4EAC020E034E412C0211515
:1009800090E2390780F42F3F310509F050F4283EFA
:10099000310538F0C901805F91093065409708F052
:1009A0008FCFC9010895C9019F700E9430049C0136
:1009B000F8CF8115944508F041C0211583E538072B
:1009C00008F06AC0211592E5390738F5211541E58F
:1009D000340708F05CC0211580E5380708F454C0DE
:1009E000C90134E0969587953A95E1F78370422FD7
:1009F00046954695437090E2499FA0011124582BDB
:100A0000822F837021E030E002C0220F331F8A95CD
:100A1000E2F7242B352B3C68C4CFC901837099279A
:100A200041E050E002C0440F551F8A95E2F7269539
:100A3000269580E2289F90011124EBCF211596E5A1
:100A4000390748F4922F882721153545C8F59C01B0
:100A5000246F306AA6CFC90190563F70811590412E
:100A600008F02ECF30629DCFC901805C91099DCFE7
:100A7000253A310549F1263A310549F522E830E4B5
:100A800090CF3327306C8DCF3F70306A8ACF322FB2
:100A90002227216F306A85CFC9018370992741E0F1
:100AA00050E002C0440F551F8A95E2F7269526951F
:100AB00080E2289F90011124242B352B3A6871CFB6
:100AC00088279F719C01CECF21E830E46ACF23E8CC
:100AD00030E467CF22EE34E464CF29EE34E461CF12
:100AE0002AEE34E45ECF25EB34E45BCF26EB34E42E
:100AF00058CF23EB34E455CF24EB34E452CF27EB2B
:100B000034E44FCF2CEC34E44CCF2DEC34E449CF1B
:100B100023E835E446CF2AE835E443CF22E935E43B
:100B200040CF24E935E43DCF21E236E43ACF23E259
:100B300036E437CF24E236E434CF25E236E431CF51
:100B400026E236E42ECF27E236E42BCF2AE236E443
:100B500028CF803E910581F1C8F48133910509F4D5
:100B600062C048F48932910509F456C08A32910571
:100B700009F460C0089589339105B9F08238910570
:100B8000A1F08533910509F440C00895863E910592
:100B900061F138F4823E9105B1F0833E9105E1F0B8
:100BA0000895873E910551F1089520910202237026
:100BB000D9F080EE90E008952091020220FF14C049
:100BC00089E390E008952091020222FF0DC024FDE8
:100BD00009C083EE90E008952091020222FD31C009
:100BE00024FF02C090E080E008952091020223FFDC
:100BF000FBCF24FDF7CF87EE90E00895209102020D
:100C000023FFEECF86EE90E008952091020225FFAB
:100C1000EBCF89E290E008952091020225FFE4CF16
:100C200085E390E008952091020226FFDDCF8AE25D
:100C300090E008952091020226FFD6CF81E390E054
:100C4000089582EE90E0089508950F931F93CF9337
:100C50008C01FB018281811106C0C1E08C2FCF91F4
:100C60001F910F910895C0914501C11125C0053113
:100C7000104799F70E94240681E0809345010E9465
:100C800053149093440180934301109238011092C1
:100C90003A011092390110923C0110923B011092DE
:100CA0003E0110923D011092400110923F011092BE
:100CB000420110924101D2CF8091430190914401B1
:100CC0000E945F14883C910540F680913801E82F1E
:100CD000F0E0EE0FFF1FE75CFE4F118300838F5F94
:100CE00080933801C0E0BACF0C94CE020C94CF02AE
:100CF000CF93DF9385B7806885BF85B7806885BF50
:100D000084988C9A85988D9AA3E1B1E04DE151E0E9
:100D1000C1E0D0E08D91E82FE295EF70F0E061A1A5
:100D20008F709E0101C0220F8A95EAF7922F90954D
:100D3000962391A382A1822B82A34A175B0751F7C6
:100D400010924B0110924A011092470110924601F5
:100D500010924D0110924C011092490110924801DD
:100D6000DF91CF910C9413044F925F927F928F92F8
:100D70009F92AF92BF92CF92DF92EF92FF920F932A
:100D80001F93CF93DF9396E4492E91E0592E2DE1E6
:100D9000E22E21E0F22E01E010E099249394E2018A
:100DA000A990B9902E01DE011E921E92F701819149
:100DB0007F01E82FE295EF70F0E091A18F7098012C
:100DC00001C0220F8A95EAF7892F822B81A382A185
:100DD000822E8094882182A380EA8A95F1F783E1AC
:100DE000C82E81E0D82E90E080E0E60179916E0176
:100DF000472F42954F7050E0EA0178A04D915C91E9
:100E000011977F70E80102C0CC0FDD1F7A95E2F7E1
:100E1000BE01672109F05AC0B801082E02C0660F52
:100E2000771F0A94E2F7462B572B11965C934E934B
:100E300001968A309105C9F681A1882281A282A1FA
:100E4000282B22A38D919C91A816B90641F090926F
:100E50004E010E9453149093500180934F01DAE4A5
:100E60004D16D1E05D0609F09ACF80914E0188239E
:100E7000D1F080914F01909150010E945F1406972C
:100E800090F0809146019091470190934B0180939F
:100E90004A01809148019091490190934D018093BE
:100EA0004C0110924E010E94150481E0DF91CF9118
:100EB0001F910F91FF90EF90DF90CF90BF90AF9078
:100EC0009F908F907F905F904F90089570E060E0CA
:100ED000AACFE82FF0E0EE0FFF1FE65BFE4F808108
:100EE0009181089508959093560180935501089536
:100EF000E0915501F0915601309721F00190F08179
:100F0000E02D099480E00895E0915501F09156019B
:100F1000309721F00280F381E02D09940895E0914B
:100F20005501F0915601309721F00480F581E02DB4
:100F300009940895209153013091540128173907DD
:100F400071F09093540180935301E0915501F09119
:100F50005601309721F00680F781E02D099408951D
:100F600020915101309152012817390771F0909367
:100F7000520180935101E0915501F0915601309753
:100F800021F00084F185E02D0994089508950C94D2
:100F9000C6070E944A140E9478060C9414155F92AA
:100FA0006F927F928F929F92AF92BF92CF92DF9279
:100FB000EF92FF920F931F93CF93DF9300D000D057
:100FC0000F92CDB7DEB70E94B40698E5A92E91E046
:100FD000B92E10E000E088248394912C502E802FAD
:100FE0000E9469077C01F501C190D1905F01C8168C
:100FF000D90609F460C08091D10181FD0E94720779
:1010000090E080E0CE24DF243401082E02C0660C7C
:10101000771C0A94E2F7960126213721232B09F445
:1010200045C089835A82E620F72081E0EF2809F441
:1010300080E08B830E9453148160782F9D838C8382
:1010400049815A816B818D810E948408000F111F94
:10105000F801E85AFE4F80819181682679267182D5
:1010600060820E94C1170E947807909157018917EA
:10107000B1F10E947807809357010F900F900F9065
:101080000F900F90DF91CF911F910F91FF90EF90F4
:10109000DF90CF90BF90AF909F908F907F906F9098
:1010A0005F900C94190401E010E098CF01968A300B
:1010B000910509F0A9CF01301105A9F78FEF8983B8
:1010C0008A831B820E9453148160782F9D838C83B6
:1010D00049815A816B818D810E948408C2CF0F9013
:1010E0000F900F900F900F90DF91CF911F910F9164
:1010F000FF90EF90DF90CF90BF90AF909F908F9038
:101100007F906F905F900895CF93DF93CDB7DEB758
:101110002B970FB6F894DEBF0FBECDBF4F83588715
:1011200069877A878B871E8285E0FE013796DE010C
:10113000119601900D928A95E1F749815A816B8150
:101140007C818D819E812B960FB6F894DEBF0FBEF9
:10115000CDBFDF91CF910C94FB0E882309F4D8C04A
:10116000823871F40E94780781FDD2C089E30E9421
:10117000A0120E946A1389E30E94DD120C946A1384
:10118000833859F40E94780780FDC2C083E50E942D
:10119000A0120E946A1383E5EFCF843859F40E94AD
:1011A000780782FDB5C087E40E94A0120E946A13EE
:1011B00087E4E2CF9CEF980F913A18F40E94A012B6
:1011C000DDCF90E2980F983050F4877091E001C025
:1011D000990F8A95EAF7892F0E942113CFCF9BE5BB
:1011E000980F933070F4853A31F0863A39F083E8FD
:1011F00090E00C949A0781E890E0FBCF82E890E0C1
:10120000F8CF98E5980F953108F082C0883A09F434
:1012100040C0893A09F440C08A3A09F440C08B3A88
:1012200009F440C08C3A09F440C08B3B09F440C03B
:101230008C3B09F440C08D3A09F440C0803B09F46E
:1012400040C08E3A09F440C08F3A09F440C0813B57
:1012500009F440C0823B09F440C0833B09F440C01C
:10126000843B09F440C0853B09F440C0863B09F447
:1012700040C0873B09F440C0883B09F440C0893B2B
:1012800009F440C08A3B09F440C090E080E00C942F
:10129000B00782EE90E0FBCF89EE90E0F8CF8AEEC7
:1012A00090E0F5CF85EB90E0F2CF86EB90E0EFCFCA
:1012B00083EB90E0ECCF84EB90E0E9CF87EB90E01C
:1012C000E6CF8CEC90E0E3CF8DEC90E0E0CF83E8CC
:1012D00091E0DDCF8AE891E0DACF82E991E0D7CFE3
:1012E00084E991E0D4CF81E292E0D1CF83E292E031
:1012F000CECF84E292E0CBCF85E292E0C8CF86E207
:1013000092E0C5CF87E292E0C2CF8AE292E0BFCFFF
:101310000895882309F44BC0823871F40E9478073D
:1013200081FF45C089E30E94A0120E946A1389E3ED
:101330000E94DD120C946A13833859F40E947807D6
:1013400080FF35C083E50E94A0120E946A1383E5E6
:10135000EFCF843859F40E94780782FF28C087E4D1
:101360000E94A0120E946A1387E4E2CF9CEF980FBC
:10137000913AF0F290E2980F983050F4877091E033
:1013800001C0990F8A95EAF7892F0E942713D2CFBF
:101390009BE5980F933020F490E080E00C949A073E
:1013A000885A853120F490E080E00C94B0070895CD
:1013B000882321F00E9421130C946A130895882336
:1013C00021F00E9427130C946A1308958F929F9224
:1013D000AF92BF92DF92EF92FF920F931F93CF9342
:1013E000DF9300D000D00F92CDB7DEB77C016D83C4
:1013F0007983FC01058102950F70128111110E9401
:1014000040130E949912D82E882371F01123A1F065
:101410008D81805E883080F082E00E9483120E947D
:10142000991291E0D82ED926E981E295EF70F0E08B
:10143000E45CFE4D0C94D820D12CF6CF09810F70BE
:10144000F981F07F11F00295007F1123B1F00023A4
:1014500061F08D81805E883018F02D81211109C0E6
:10146000802F0E9421130E946A138D810E94AD0873
:1014700015C0802F0E943213F6CF8D810E948909FA
:10148000002361F08D81805E883018F03D8131113C
:1014900029C0802F0E9427130E946A13DD2009F4BF
:1014A000D3C10E94761280FDCFC1F70112820E9443
:1014B00070120E94B910C7010E94350C0E94701270
:1014C0000F900F900F900F900F90DF91CF911F9181
:1014D0000F91FF90EF90DF90BF90AF909F908F9013
:1014E0000C94DB10802F0E943813D6CF49814F70A7
:1014F000B42E5981507F503219F0B29480EFB82247
:101500008D81882369F0813029F1112369F100234D
:1015100059F0F701858180FFA8CF8F70858304C0C3
:10152000112361F0011104C08B2D0E94D809B6CFA0
:101530008B2D0130D1F70E945413B0CF011106C09A
:101540000E9457138B2D0E94DF09A8CF013009F4A8
:10155000A5CFF6CF112321F0063008F09FCFE4CFBE
:10156000053008F09BCFEECF002361F38D810E9400
:10157000890994CF898186958695837069F0813039
:1015800009F08CCF8D8199819370111102C090E088
:1015900080E00E94B00782CF8D81998193701111F4
:1015A00002C090E080E00E949A0778CF8D811123DD
:1015B00029F00E94CF160E94B61770CF0E943717ED
:1015C000FACF8981837009F05FC0111167CF2D8137
:1015D000229526952770220F220F8D818F7090E023
:1015E000B0E0A0E04C015D01022E04C0880C991C03
:1015F000AA1CBB1C0A94D2F7FD8160E070E0CB010D
:10160000F4FF0FC06FE070E080E090E004C0660F70
:10161000771F881F991F2A95D2F76095709580953E
:10162000909529812695269523702D832230B1F03F
:10163000233019F19B01AC01282939294A295B295A
:1016400029833A834B835C833D8169817A818B81D5
:101650009C813130B1F00E94461020CF9B01AC013B
:10166000282939294A295B2929833A834B835C83BA
:10167000CA01B9010E94701011CF0E944610C50125
:10168000B4010E941C100ACF8695112311F08981A4
:101690008170882309F402CF2D8122952695277029
:1016A000220F220F8D818F7090E0B0E0A0E04C01FE
:1016B0005D01022E04C0880C991CAA1CBB1C0A9454
:1016C000D2F73D8160E070E0CB0134FF0FC06FE0E6
:1016D00070E080E090E004C0660F771F881F991FBC
:1016E0002A95D2F760957095809590954981469599
:1016F000469543704D834230B1F0433019F19B0160
:10170000AC01282939294A295B2929833A834B834B
:101710005C833D8169817A818B819C813130B1F01C
:101720000E944C11BBCE9B01AC01282939294A29C2
:101730005B2929833A834B835C83CA01B9010E94E8
:101740007611ACCE0E944C11C501B4010E94221149
:10175000A5CE3D81323F09F447C080F4303F79F196
:10176000313FD9F1832F805E8031D0F0112309F40D
:1017700056C001117ACE89818F7133C04D81433FAC
:10178000D1F1443F99F7112309F43FC089818F714A
:1017900089830E94B91063E089810E947A127ECE0B
:1017A0005D815F705D8389818F71112321F00E94BB
:1017B000B9108D81BACE0E94DB108D81C4CE112369
:1017C00041F0053008F06ACE89818F710E940011C6
:1017D00065CE063008F062CEF7CF89818F71112374
:1017E00039F00E94B9105ACE89818F711123C9F343
:1017F0000E94DB1053CE112329F089818F710E9442
:10180000A4104CCE0E949A1049CE81E00E9483120F
:10181000023008F443CE82E00E9483123FCE0111D1
:10182000A5CE89818F71E4CF49814F706D81C70149
:101830000E94BA020E94950F31CE49814F706D818E
:10184000C7010E941B042ACE0F900F900F900F909B
:101850000F90DF91CF911F910F91FF90EF90DF904C
:10186000BF90AF909F908F9008950F931F93CF9349
:10187000DF93EC018B819C81892B29F088819981F0
:1018800089238F3F29F4DF91CF911F910F91089504
:10189000CE010E94E4028823B1F3688179818A81B4
:1018A0000E9446128C010E94A0110E941110B801E2
:1018B000CE01DF91CF911F910F910C94E6090E9408
:1018C00040130E9451130E9413130E946A130E9436
:1018D000A7180E94B61790E080E00E949A0790E057
:1018E00080E00C94B0070E942F130C945F0C0E94B0
:1018F0003A12282F892F82958F70903C80F48A307D
:10190000B0F4843020F4823090F480E00895863082
:10191000E1F781E0203E88F0213FB9F70EC08C301E
:1019200011F08F3091F793FB882780F9089581E0BB
:10193000203F39F018F4203E40F70895243F29F75E
:10194000FCCF0895CF93DF9300D000D00F92CDB796
:10195000DEB70F900F900F900F900F90DF91CF9107
:101960000895CF93DF9300D000D000D0CDB7DEB77D
:1019700026960FB6F894DEBF0FBECDBFDF91CF9194
:1019800008951F93CF93DF93E0915D0116E080915E
:101990005E018E1304C0DF91CF911F910895CE2F69
:1019A000D0E01E9FF0011124E15AFE4F4081518189
:1019B00062817381848195810E94B10CFE01319610
:1019C000E770E5CF40918F015091900160919101B6
:1019D0007091920180919301909194010C94B10CBB
:1019E0001F93CF93DF9380919401807FC1F4809106
:1019F00091018823A1F080915D01C0915E01609109
:101A00008F01709190014091920150919301D62FD6
:101A1000D723DA01A095B09516E0C81304C0DF9172
:101A2000CF911F91089590E04115510511F0DF3FCE
:101A300031F401968770F1CF2A0F3B1F17C0189F12
:101A4000F001199FF00D1124E15AFE4F2181271357
:101A5000F0CF20812613EDCF22812111EACF2381FF
:101A600034812417350740F3241B350B283C3105FE
:101A700000F7209194012F7020612093940126E0BB
:101A8000289FF001299FF00D1124EC59FE4F808111
:101A90008F70806180838FE891E00E94350CDF9128
:101AA000CF911F910C94C10C9F92AF92BF92CF9295
:101AB000DF92EF92FF920F931F93CF93DF93CDB7F7
:101AC000DEB72B970FB6F894DEBF0FBECDBF8C01EB
:101AD00085E0F801DE01179601900D928A95E1F7F5
:101AE000D8014C9111965C9111971296EC90129737
:101AF0008091920190919301009709F46BC120911C
:101B00008F0130919001632F62236F3F09F462C10E
:101B10001396CD90DC9090909101992009F4F8C033
:101B2000C816D90608F43FC0F601E81BF90BCF012F
:101B3000FF24F394883C910508F0F12C8FE8A82E3F
:101B400081E0B82E80919401982F907FFF2009F4B6
:101B5000B7C0911180C0FE2C35132AC0241328C0B1
:101B6000E11026C08F708061809394010E94E20C86
:101B7000C5010E94350C80919401D80115968C9373
:101B80008F2D2B960FB6F894DEBF0FBECDBFDF9121
:101B9000CF911F910F91FF90EF90DF90CF90BF906A
:101BA000AF909F900895809590958C0D9D1DC0CF0E
:101BB000CD2829F0842F85238F3F09F019C180E0BB
:101BC000B82FB170DB2EE0915D0120915E0136E00F
:101BD00080FD1CC0EE20A1F2809194018160809371
:101BE0009401F12CCDCF8E2F90E03E9FF001112477
:101BF000E15AFE4F6181651306C06081641303C022
:101C000062816E11E7CFFC013196E770E213EBCFF2
:101C10004F8358878F8198850E943A12292F2295E9
:101C20002F70903260F0225F2F70223078F49F7016
:101C300051F0F8019581907F31F4D12C0AC09F704A
:101C400011F08823D1F3805E8830B8F3C8010E9478
:101C5000350CFD2C95CF351306C0241304C0D801D4
:101C6000EE2009F47BC04F8358878F8198850E94AE
:101C7000770C882309F4B8C0EE2009F4B5C0809130
:101C80009401803270F020918F01309190013A835D
:101C900029831B82DD82CC828E83CE0101960E9435
:101CA000350C86E0F801AFE8B1E001900D928A951D
:101CB000E1F70E94F00C0E94E20CFF24F39460CF45
:101CC000911113C07C2DDB86CA866E2D8B850E94F8
:101CD000A20C8FE891E00E94350C86E0F50111928C
:101CE0008A95E9F70E94E20C4BCF3513BCCF241341
:101CF000BACFE110B8CFD80115968C93C8010E94D5
:101D0000350C86E0F50111928A95E9F7F92C38CF68
:101D1000C816D90688F1B601681B790BCB01F12CE6
:101D2000883C910508F047C0FE2CEE2009F45CC009
:101D3000351330C024132EC08091940180FD21C042
:101D4000982F907FF1F0D80115968C931597903FBE
:101D500039F0982F907F905F8F70892B15968C9318
:101D6000C8010E94350C86E0F801AFE8B1E00190AF
:101D70000D928A95E1F7B6CF809590958C0D9D1DBB
:101D8000CECF86E0F801AFE8B1E001900D928A95E0
:101D9000E1F7F6CE4F8358878F8198850E94770CA4
:101DA00081117FCF80919401816080939401C8015B
:101DB0000E94350CE5CE7C2DDB86CA866E2D8B8588
:101DC0000E94A20C86E0EFE8F1E0DF011D928A9507
:101DD000E9F788CFEE2041F04F8358878F819885AF
:101DE0000E94770C81115DCFC8010E94350C65CF30
:101DF00081E08E25E5CE1F93CF93DF93CDB7DEB77D
:101E00002C970FB6F894DEBF0FBECDBF4F83588717
:101E100069877A878B879C87CE0107960E94540D2D
:101E2000882369F08A859B85892B39F04F815885F5
:101E3000842F85238F3F09F071C016E05FC086E0D4
:101E4000FE013796DE01119601900D928A95E1F719
:101E50008A859B85892B89F388859F8189238F3F7C
:101E600061F320915E0130E0C901019687709927E6
:101E700040915D014817190671F40E94730C10928D
:101E80005E0110925D0186E0EFE8F1E0DF011D9256
:101E90008A95E9F7D2CF96E0929FD001939FB00D3B
:101EA0001124A15ABE4FFE01319601900D929A95D0
:101EB000E1F780935E010E94C10CBFCF819FC001FA
:101EC0001124815A9E4F0E94540D8823E9F0E0911D
:101ED0005D011E9FF0011124E15AFE4F40815181A6
:101EE00062817381848195810E94B10C80915D0132
:101EF00090E001968770992780935D0180915D0144
:101F000090915E018913DACF2C960FB6F894DEBF5C
:101F10000FBECDBFDF91CF911F91089569857A855E
:101F20008B859C850E94B10C88CFEF92FF920F9316
:101F30001F93CF93DF938C01892B89F0F12CEE2432
:101F4000E394E8012196F8018491843709F457C09D
:101F5000A0F4823009F43EC048F48130D1F0DF9122
:101F6000CF911F910F91FF90EF9008959CEF980FE4
:101F70009037A8F70E94AD080AC0853709F44CC015
:101F80009CE7980F903758F78F770E9489098E0148
:101F900016C00E5F1F4FFE01849190E2980F98309B
:101FA00060F48770FE2D01C0FF0F8A95EAF78F2F2E
:101FB0000E9443130E946A1302C00E94AD088F2D35
:101FC000815008F4BECFEFE9FFE03197F1F700C090
:101FD0000000F6CF0E5F1F4FFE01849190E2980F34
:101FE000983050F48770FE2D01C0FF0F8A95EAF7F4
:101FF0008F2F0E944913DECF0E948909E0CF0E5F28
:102000001F4FFE01C491C150D0F28FE99FE00197AC
:10201000F1F700C00000F7CF0E5F1F4FFE01F490F4
:10202000CECF08956093A8017093A9018093AA016F
:102030009093AB010C945F0CCF93DF9300D000D052
:10204000CDB7DEB769837A838B839C838091A801A7
:102050009091A901A091AA01B091AB0129813A8187
:102060004B815C81822B932BA42BB52B8093A801F1
:102070009093A901A093AA01B093AB010F900F9088
:102080000F900F90DF91CF910C945F0CCF93DF9363
:1020900000D000D0CDB7DEB769837A838B839C8371
:1020A0008091A8019091A901A091AA01B091AB01E2
:1020B00029813A814B815C8182239323A423B52318
:1020C0008093A8019093A901A093AA01B093AB01BA
:1020D0000F900F900F900F90DF91CF910C945F0CA9
:1020E000CF93DF9300D000D0CDB7DEB769837A837A
:1020F0008B839C838091A8019091A901A091AA0152
:10210000B091AB0129813A814B815C818227932771
:10211000A427B5278093A8019093A901A093AA01B1
:10212000B093AB010F900F900F900F90DF91CF9174
:102130000C945F0C1092A4011092A5011092A601BC
:102140001092A7010C945F0C41E050E060E070E059
:1021500004C0440F551F661F771F8A95D2F740931E
:10216000A4015093A5016093A6017093A7010C945C
:102170005F0C282F81E090E0A0E0B0E004C0880F61
:10218000991FAA1FBB1F2A95D2F74091A401509115
:10219000A5016091A6017091A701842B952BA62B18
:1021A000B72B8093A4019093A501A093A601B093AF
:1021B000A7010C945F0C41E050E060E070E004C0C7
:1021C000440F551F661F771F8A95D2F7409550958B
:1021D000609570958091A4019091A501A091A601B0
:1021E000B091A70184239523A623B7238093A4014C
:1021F0009093A501A093A601B093A7010C945F0C46
:10220000282F81E090E0A0E0B0E004C0880F991F83
:10221000AA1FBB1F2A95D2F74091A4015091A50196
:102220006091A6017091A70184279527A627B7275B
:102230008093A4019093A501A093A601B093A70158
:102240000C945F0CCF93DF9300D000D0CDB7DEB7F6
:1022500069837A838B839C838091A4019091A501EB
:10226000A091A601B091A70129813A814B815C819F
:10227000822B932BA42BB52B8093A4019093A501C3
:10228000A093A601B093A7010F900F900F900F900D
:10229000DF91CF910C945F0CCF93DF9300D000D0EF
:1022A000CDB7DEB769837A838B839C838091A40149
:1022B0009091A501A091A601B091A70129813A8131
:1022C0004B815C8182239323A423B5238093A401B3
:1022D0009093A501A093A601B093A7010F900F9032
:1022E0000F900F90DF91CF910C945F0CCF93DF9301
:1022F00000D000D0CDB7DEB769837A838B839C830F
:102300008091A4019091A501A091A601B091A7018F
:1023100029813A814B815C8182279327A427B527A5
:102320008093A4019093A501A093A601B093A70167
:102330000F900F900F900F90DF91CF910C945F0C46
:102340000895E82F2AE0929FE00D11248E2F8770C8
:1023500041E001C0440F8A95EAF7E695E695E695D7
:1023600085E0E89FF0011124EB56FE4F30E020E0BD
:1023700070E05191DF011197CB01022E02C09695BA
:1023800087950A94E2F781708195852784238527B4
:102390008C932F5F3F4F2530310559F70895E82F73
:1023A0002AE0929FE00D11249E2F9770E695E69506
:1023B000E69585E0E89FF0011124EB56FE4F50E0D2
:1023C00040E080E0219130E0092E02C0369527954B
:1023D0000A94E2F721703327042E01C0220F0A94D9
:1023E000EAF7822B4F5F5F4F4530510559F708954B
:1023F000BF92CF92DF92EF92FF920F931F93CF93F2
:10240000DF938C01C090A401D090A501E090A601BB
:10241000F090A7018091A8019091A901A091AA0133
:10242000B091AB01C82AD92AEA2AFB2ACFE1D0E031
:10243000BC2ED701C6010C2E04C0B695A795979562
:1024400087950A94D2F780FD0EC0219788F7B12CAA
:102450008B2DDF91CF911F910F91FF90EF90DF9027
:10246000CF90BF900895B8018C2F0E943804019737
:1024700061F3EECFCF93DF93D82FC92F0E94F811CD
:102480006D2F7C2FDF91CF910C9438041F93CF9345
:10249000DF93162FD72F90915C01992339F0862F67
:1024A000972FDF91CF911F910C943A12882391F0CE
:1024B000862F972F0E94F811C82F682F812F9D2FEC
:1024C0000E94A111612F7D2F8C2FDF91CF911F9141
:1024D0000C943804862F972F0E94CF11C82FF2CF6B
:1024E0008091AC0185958595859508958091AC0185
:1024F0008770089598E0899F90011124622B609362
:10250000AC010C94B9109091AC0180958923809313
:10251000AC01282F277061F4282F082E000C330BF4
:102520009217130629F08595859585950C94DB10F7
:1025300008959091AC01977081E009F480E00895CE
:10254000909112019923E1F09091020297FF18C037
:10255000E82FE695E695E695EF3139F120910001F7
:1025600030910101E20FF32FF11D877021E030E07F
:1025700001C0220F8A95EAF78181822B8183089519
:102580002091000130910101F90132969FEF40E066
:102590005191851751F09F3F19F4511101C0942FAB
:1025A0004F5F4E31A9F79F3F09F40895290F311D60
:1025B00097FD3A95F901828308959091120199232C
:1025C00001F19091020297FF1CC0E82FE695E69575
:1025D000E695EF3139F12091000130910101E20FD0
:1025E000F32FF11D877021E030E0A90102C0440FF4
:1025F000551F8A95E2F7CA018095918189238183CD
:1026000008952091000130910101F9013296205E78
:102610003F4F9191891303C0DF0111971C92E2177C
:10262000F307B9F7089581E090E0E0910001F0919F
:102630000101E80FF91F1082019680329105A9F778
:1026400008959091D001982B9093D0010895982FE0
:1026500090958091D00189238093D00108951092A4
:10266000D00108959091CF01982B9093CF010895B8
:10267000982F90958091CF0189238093CF01089561
:102680001092CF0108959091CE01982B9093CE0196
:102690000895982F90958091CE0189238093CE0143
:1026A00008951092CE0108958093AD01089510927F
:1026B000AD0108952091000130910101F901319699
:1026C000205E3F4F80E0919191118F5FE217F307F9
:1026D000D1F70895E0910001F09101018091D001BE
:1026E0008083E0910001F091010180819091CF0100
:1026F000892B8083E0910001F0910101808190910C
:10270000CE01892B80839091AD01992361F0E091F6
:102710000001F09101018081892B80830E945A136E
:1027200081111092AD0180910001909101010C94F2
:1027300084076DEE7EEF90E080E00E94122160E061
:1027400082E090E00E94002160E083E090E00E943F
:10275000002160E084E090E00E94002160E085E0DC
:1027600090E00C94002190E080E00E94FA209C010F
:1027700081E02D3E3E4F09F080E0089582E090E038
:102780000C94F220682F82E090E00C94002183E00A
:1027900090E00C94F220682F83E090E00C940021EC
:1027A00084E090E00C94F220682F84E090E00C9498
:1027B000002180910802843039F11092D20188E121
:1027C00090E020E40FB6F894A895809360000FBEC7
:1027D0002093600080E00E94190483B7817F8460A9
:1027E00083BF83B7816083BF7894889583B78E7FDA
:1027F00083BF0FB6F894A89580916000886180939C
:102800006000109260000FBE0895089508950E9420
:1028100005140E94B4060E94061480E00E94690715
:10282000892B49F481E00E9469079C0181E0232BF8
:1028300019F480E0089581E008950E94730C0E94CD
:1028400078070C9419041F921FB61F9211248F93BE
:102850009F93AF93BF938091D201811113C0809158
:10286000FE019091FF01A0910002B09101024196FA
:10287000A11DB11D8093FE019093FF01A093000262
:10288000B0930102BF91AF919F918F911F901FBE96
:102890001F90189582E084BD93E095BD9AEF97BD97
:1028A00080936E0008952FB7F8948091FE01909167
:1028B000FF01A0910002B09101022FBF0895CF92B5
:1028C000DF92EF92FF929C014FB7F8948091FE0146
:1028D0009091FF01A0910002B09101024FBF6C01E5
:1028E0007D01EE24FF24A90170E060E0C416D50646
:1028F000E606F70638F0821B930BFF90EF90DF900F
:10290000CF9008950197F7CF1F921FB61F92112401
:102910008F939F93AF93BF938091FE019091FF019E
:10292000A0910002B09101020196A11DB11D8093FA
:10293000FE019093FF01A0930002B0930102BF91AA
:10294000AF919F918F911F901FBE1F9018950E946D
:102950009B1CF8942FEF87EA91E62150804090402D
:10296000E1F700C0000087E090EBDC0180931102EA
:1029700090931202A0931302B093140288E19CE09A
:102980000FB6F894A895809360000FBE90936000F6
:10299000FFCFAF92BF92CF92DF92EF92FF921F9341
:1029A000CF93DF9310E0AA24A394B12CE82EF12C4E
:1029B000812F0E9469076C01D0E0C0E0C5010C2E98
:1029C00002C0880F991F0A94E2F78C219D21892B60
:1029D000A9F06C2F712F80E00E941C04E816F90604
:1029E00069F481E0DF91CF911F91FF90EF90DF902C
:1029F000CF90BF90AF90089511E0DACF2196CA3002
:102A0000D105E1F61130C1F780E0ECCFCF93C82FAC
:102A10008CE20E94C914882321F08C2FCF910C9452
:102A2000C91480E0CF910895CF93DF9300D000D0F8
:102A3000CDB7DEB70E94B313811102C00E94991373
:102A400095E6998308C00E94B4068FE39CE901973C
:102A5000F1F700C00000A981A150A983A111F3CF13
:102A600089E20E940615811110C18AE20E940615B2
:102A700081110E94991385E00E94061581110E9420
:102A8000A7140E94BE138093D10187E00E9406150F
:102A9000882371F08BE10E940615882309F4D1C0C8
:102AA0009091D101892F8D7F91FF82608093D10118
:102AB0008091D1010E94C2130E94D01390E09093A4
:102AC00003028093020280EE0E940615882341F0E3
:102AD00090910202892F8E7F90FF81608093020285
:102AE00089E30E940615882341F090910202892F04
:102AF0008D7F91FF82608093020282EE0E94061514
:102B0000882341F090910202892F8B7F92FF84608D
:102B10008093020286EE0E940615882341F0909170
:102B20000202892F877F93FF88608093020283EEE1
:102B30000E940615882341F090910202892F8F7E12
:102B400094FF80618093020285E30E94061588232A
:102B500041F090910202892F8F7D95FF80628093D2
:102B6000020281E30E940615882341F0909102023F
:102B7000892F8F7B96FF80648093020281E10E94FF
:102B80000615882341F090910202892F97FB87F95F
:102B9000805880930202809102020E94D41387E23F
:102BA0000E94061589838EE10E940615882319F07C
:102BB000B981B260B9838FE10E940615882319F0AC
:102BC00029812460298380E20E940615882319F058
:102BD00039813860398381E20E940615882319F013
:102BE00049814061498382E20E940615882319F0D9
:102BF00059815062598383E20E940615882319F097
:102C000089818064898384E20E9406158823B1F15A
:102C100099819068998389810E94CB133981232FF0
:102C200030E050E040E029833A834B835C83CA0163
:102C3000B9010F900F900F900F90DF91CF910C94EE
:102C400012108EE00E940615882339F09091D10170
:102C5000892F8B7F92FF846029CF80E10E94061527
:102C60009091D101882329F0892F877F93FF886075
:102C70001DCF892F8E7F90FF816018CFA981A11170
:102C8000CACF0E94C713282FCBCF0F900F900F9061
:102C90000F90DF91CF9108958091D50180FF12C0F0
:102CA0006091050185E0689FB001112475956795D5
:102CB0007595679560387105A8F561157105A1F1E5
:102CC000862F089581FF09C06091050185E0689F06
:102CD000B001112475956795EDCF6091050182FDD6
:102CE0000AC08091D6018823D1F0909104016091AF
:102CF0000501891728F085E0689FB0011124DACF1B
:102D0000869FB001112485E0869F9001879F300D3A
:102D10001124692F70E0C9010E94C420CBCF65E067
:102D200070E0CECF8FE7089581E008958091D501BE
:102D300080FF0CC06091030170E0759567957595F3
:102D400067956115710549F1862F089581FF06C0C9
:102D50006091030170E075956795F3CF6091030171
:102D600082FD0BC09091D6019923A1F060910201E0
:102D700080910301961738F0682F70E06038710574
:102D800000F38FE70895899FC001112470E00E942D
:102D9000C420F4CF61E070E0D7CF81E00895803F98
:102DA00031F40E944C1681958093D9010895813F9A
:102DB00019F40E944C16F8CF823F31F40E944C1651
:102DC00081958093D8010895833F19F40E944C1691
:102DD000F8CF893F29F40E9496168093DA0108956E
:102DE0008A3F21F40E9496168195F7CF8B3F31F4EC
:102DF0000E94961681958093DB0108958C3F19F40B
:102E00000E949616F8CF843F31F48091D7018160FB
:102E10008093D7010895853F21F48091D701826086
:102E2000F7CF863F21F48091D7018460F1CF873FAF
:102E300021F48091D7018860EBCF883F21F4809105
:102E4000D7018061E5CF8D3F31F48091D50181605C
:102E50008093D50108958E3F21F48091D501826041
:102E6000F7CF8F3FB9F78091D5018460F1CF909172
:102E7000D801803F41F48091D90187FD1092D9019A
:102E8000992371F00895813F29F48091D901181692
:102E9000ACF3F6CF823F81F497FFF2CF1092D801C6
:102EA0008091D9019091DA01892B9091DB01892BD6
:102EB00049F71092D6010895833F19F4191674F357
:102EC000DFCF893F39F48091DA011816CCF61092E1
:102ED000DA01D6CF8A3F29F48091DA0187FFD0CF7B
:102EE000F6CF8B3F39F48091DB0187FFC9CF109279
:102EF000DB01C6CF8C3F29F48091DB011816BCF3AF
:102F0000BFCF843F31F48091D7018E7F8093D7016A
:102F1000B7CF853F21F48091D7018D7FF7CF863FD2
:102F200021F48091D7018B7FF1CF873F21F48091ED
:102F3000D701877FEBCF883F21F48091D7018F7E27
:102F4000E5CF8D3F31F48091D5018E7F8093D501FF
:102F500097CF8E3F21F48091D5018D7FF7CF8F3FA2
:102F600009F08ECF8091D5018B7FF0CF87ED91E076
:102F70000E948F070E9453149093D4018093D30131
:102F800008951F93CF93DF9300D000D000D0CDB72A
:102F9000DEB78091D3019091D4010E945F14AC01FF
:102FA0008091D6012091060130E0811106C0209168
:102FB00007019AE0299F900111244217530788F0D6
:102FC0002091D801A091D901A9831091DA01B09183
:102FD000DB01BE8321110FC09A2F912B9B2B09F08F
:102FE000B2C026960FB6F894DEBF0FBECDBFDF91FC
:102FF000CF911F9108958F3F19F08F5F8093D60175
:10300000121624F40E944C168093D8018091D801A6
:1030100087FF05C00E944C1681958093D8012981B5
:10302000121624F40E944C168093D9018091D90184
:1030300087FF05C00E944C1681958093D90180912D
:10304000D801882309F455C03091D9013D83332339
:1030500009F44FC0282F880F330B440B550B2983DD
:103060003A834B835C83CA01B9010E94CB1F23E3DF
:1030700033E343E35FE369837A838B839C836981D2
:103080007A818B819C810E942F2069837A838B8334
:103090009C8369817A818B819C810E94931F6093BC
:1030A000D8018D81082E000C990BAA0BBB0B8983CC
:1030B0009A83AB83BC83BC01CD010E94CB1F23E369
:1030C00033E343E35FE369837A838B839C83698182
:1030D0007A818B819C810E942F2069837A838B83E4
:1030E0009C8369817A818B819C810E94931F60936C
:1030F000D901111624F40E9496168093DA0180916A
:10310000DA0187FF05C00E94961681958093DA0147
:103110009E81191624F40E9496168093DB018091FB
:10312000DB0187FF05C00E94961681958093DB0125
:1031300026960FB6F894DEBF0FBECDBFDF91CF91BC
:103140001F910C94B6178F3F09F057CF68CF85E0D9
:10315000E7EDF1E0DF011D928A95E9F71092D601C3
:103160001092D50108958091FC010895CF93DF93CB
:1031700000D00F92CDB7DEB720910802243019F5A8
:1031800023E029838A839B832093E9008FEF90912A
:10319000E800815095FD06C095ED9A95F1F7000085
:1031A0008111F5CF8091E80085FF0DC050E040E02F
:1031B00063E070E0CE0101960E94131B8091E8004D
:1031C0008E778093E8000F900F900F90DF91CF9152
:1031D0000895CF93DF9300D00F92CDB7DEB79C0157
:1031E00080910802843031F582E0898320583109CA
:1031F0003B832A8383E08093E9008FEF9091E8007E
:10320000815095FD06C095ED9A95F1F7000081116A
:10321000F5CF8091E80085FF0DC050E040E063E00D
:1032200070E0CE0101960E94131B8091E8008E771A
:103230008093E8000F900F900F90DF91CF91089549
:10324000209108022430F1F422E02093E9002FEFCE
:103250003091E800215035FD06C035ED3A95F1F783
:1032600000002111F5CF2091E80025FF0BC050E0B0
:1032700040E065E070E00E94131B8091E8008E77CB
:103280008093E8000895CF93DF93D82FC92F8091C2
:1032900008028430F1F4909112019923E9F09091A1
:1032A000020297FF19C08093E9008FEF9091E80028
:1032B000815095FD06C095E19A95F1F700008111C6
:1032C000F5CF8091E80050E040E060E270E085FDDD
:1032D0001AC0DF91CF91089581E08093E9008FEFCC
:1032E0009091E800815095FD06C095ED9A95F1F713
:1032F00000008111F5CF8091E80085FFEACF50E012
:1033000040E068E070E08D2F9C2F0E94131B80919D
:10331000E8008E778093E80080E2ED2FFC2FACED83
:10332000B1E001900D928A95E1F7D3CF8091070229
:10333000811109C00E949B1C0E94F81C8091E20030
:1033400084608093E2000895109207020895089522
:1033500008950C941D1442E061EC81E00E94171C5A
:1033600042E061EC82E00E94171C42E061EC83E0E5
:103370000E94171C42E261EC84E00C94171C8091BF
:103380000A02893089F148F4823009F494C083300C
:1033900009F44FC0813041F008958A3009F47BC0B0
:1033A0008B3009F461C0089580910902813A09F0D7
:1033B0003FC08091E800877F8093E80080910D02F4
:1033C00090910E02892B61F460E28CED91E070E047
:1033D0000E94621B8091E8008B778093E80008953B
:1033E00060E090E080E0F3CF80910902813201F546
:1033F00080910D0290910E02009711F00397C1F495
:103400008091E800877F8093E8008091E80082FF48
:103410000BC08091F1008093FC018091E8008B77D4
:103420008093E8000C944B1C809108028111EDCF31
:10343000089580910902813AD9F780910D02909107
:103440000E02892BA9F78091E800877F8093E8001E
:103450008091E80080FFFCCF809112018093F10001
:103460008091E8008E77DCCF80910902813201F7EC
:1034700080910D0290910E02892BD1F68091E80087
:10348000877F8093E8000E944B1C80910B02809301
:1034900012010C94730C80910902813249F68091DB
:1034A000E800877F8093E8000E944B1C80910C020B
:1034B0008093FD01089580910902813A09F0B8CF07
:1034C0008091E800877F8093E8008091E80080FF8A
:1034D000FCCF8091FD01C2CF84B7877F84BF0FB638
:1034E000F894A895809160008861809360001092A4
:1034F00060000FBE80E880936100109261000E941E
:10350000C7070E949B1C0E94F81C8091E200846007
:103510008093E20078940E94781F0E94C90788E097
:1035200091E00E94730780910802853019F00E9493
:10353000CF07F9CF0E94D91380910602882399F30F
:103540000E940714882379F30E94FD1AECCF9C0196
:10355000DA01892F992783309105C1F068F4813011
:10356000910509F445C0029761F48DE690E026E6E6
:1035700033E02D933C93089581329105E1F08297D9
:1035800039F190E080E030E020E0F3CFC9019927E5
:10359000213059F08230910559F0E2E6F3E0892BB1
:1035A00081F7849190E09F01E4CFEAE4F3E0F9CF62
:1035B000E6E3F3E0F6CF643020F7E62FF0E0EE0F1D
:1035C000FF1FE55DFE4F2081318189E090E0D1CF82
:1035D0006430B8F670E0FB01EE0FFF1FED5DFE4FAB
:1035E00020813181615E7E4FFB01808190E0C1CFFF
:1035F00082E190E023ED33E0BCCF80E189BD82E140
:1036000089BD09B400FEFDCF8091D8008F7D8093E5
:10361000D8008091E00082608093E0008091E0001B
:1036200081FDFCCF0895AF92BF92CF92DF92FF92BF
:103630000F931F93CF93DF936C01EB018A010E94DC
:103640006A1CF82E811123C00115110539F0F8010B
:1036500080819181C81BD90BC80ED91EB12CA12C19
:103660002097A9F08091E80085FD22C08091E800B4
:103670008E778093E80001151105A1F0F801808193
:103680009181A80EB91EB182A08285E0F82E8F2DFF
:10369000DF91CF911F910F91FF90DF90CF90BF905E
:1036A000AF9008950E946A1C8823D1F2F82EEFCFC4
:1036B000F60181916F018093F1002197FFEFAF1A1E
:1036C000BF0ACECFFC01CB0120910F023091100236
:1036D0002617370790F0009729F42091E8002E77FD
:1036E0002093E80040E0009751F4411108C0809118
:1036F000E80082FF31C080E00895C901F3CF209136
:1037000008022223A9F12530A9F12091E80023FD28
:103710002DC02091E80022FDEACF2091E80020FF93
:10372000E2CF3091F3002091F200009719F0283099
:10373000310558F041E02830310509F040E0209192
:10374000E8002E772093E800CECF41914093F1001E
:1037500001972F5F3F4FE9CF80910802882341F006
:10376000853041F08091E80083FFC1CF81E008956A
:1037700082E0089583E00895FC01CB0120910F02BF
:10378000309110022617370790F0009729F4209106
:10379000E8002E772093E80040E0009751F44111B3
:1037A00008C08091E80082FF32C080E00895C9011E
:1037B000F3CF209108022223B1F12530B1F12091FD
:1037C000E80023FD2EC02091E80022FDEACF2091E1
:1037D000E80020FFE2CF3091F3002091F200009743
:1037E00019F02830310558F041E02830310509F052
:1037F00040E02091E8002E772093E800CECF44915E
:103800004093F100319601972F5F3F4FE8CF8091B1
:103810000802882341F0853041F08091E80083FF61
:10382000C0CF81E0089582E0089583E00895982F45
:10383000973028F08F708093E90081E0089590938D
:10384000E900242F762F50E0981731F07091EC00AA
:103850002091ED005091F00021FD02C09F5FE8CF64
:103860003091EB003E7F3093EB003091ED003D7FD7
:103870003093ED003091EB0031603093EB007093AA
:10388000EC002093ED005093F0002091EE0027FD16
:10389000E5CF80E008958091090287FF13C08091F1
:1038A000E80082FF06C08091E8008B778093E800F3
:1038B00004C0809108028111F2CF0895809108021E
:1038C0008823D9F38091E80080FFF8CF8091E80049
:1038D0008E77ECCF2091E4003091E50095E6A901C8
:1038E0002091EC00822F817020FF06C08091E800BB
:1038F00080FF06C080E008952091E80022FD1AC0F4
:1039000080910802882389F0853089F08091EB004E
:1039100085FD0FC02091E4003091E5004217530768
:10392000F9F29150E1F684E0089582E0089583E091
:10393000089581E008950E94091D0E94111DE0EE86
:10394000F0E0808181608083E8EDF0E080818F7716
:10395000808319BCA7EDB0E08C918E7F8C93808121
:103960008F7E80831092070208950F931F93CF9349
:10397000DF930E94091D0E94111DC8EDD0E08881CF
:103980008F77888388818068888388818F7D88830A
:1039900019BC1092080210920402109206021092B2
:1039A000050200EE10E0F80180818B7F8083888122
:1039B0008160888342E060E080E00E94171CE1EEB5
:1039C000F0E080818E7F8083E2EEF0E08081816094
:1039D0008083808188608083F80180818E7F8083EE
:1039E000888180618883DF91CF911F910F91089525
:1039F000E8EDF0E080818F7E8083E7EDF0E080816C
:103A00008160808384E082BF81E0809307020C9410
:103A1000B51CE8EDF0E080818E7F80831092E2009B
:103A200008951092DA001092E10008951F920F920B
:103A30000FB60F9211242F933F934F935F936F9381
:103A40007F938F939F93AF93BF93EF93FF93809157
:103A5000E10082FF0BC08091E20082FF07C08091ED
:103A6000E1008B7F8093E1000E94771F8091DA0054
:103A700080FF19C08091D80080FF15C08091DA00C6
:103A80008E7F8093DA008091D90080FF94C080E11E
:103A900089BD82E189BD09B400FEFDCF81E080933C
:103AA00008020E9496198091E10080FF19C0809160
:103AB000E20080FF15C08091E2008E7F8093E200DB
:103AC0008091E20080618093E2008091D800806262
:103AD0008093D80019BC85E0809308020E94A81941
:103AE0008091E10084FF29C08091E20084FF25C01D
:103AF00080E189BD82E189BD09B400FEFDCF8091DE
:103B0000D8008F7D8093D8008091E1008F7E8093D4
:103B1000E1008091E2008F7E8093E2008091E200DC
:103B200081608093E20080910402882309F449C0F7
:103B300084E0809308020E94A9198091E10083FF2C
:103B400029C08091E20083FF25C08091E100877F3A
:103B50008093E10082E08093080210920402809139
:103B6000E1008E7F8093E1008091E2008E7F809360
:103B7000E2008091E20080618093E20042E060E038
:103B800080E00E94171C8091F00088608093F00014
:103B90000E94A719FF91EF91BF91AF919F918F91D3
:103BA0007F916F915F914F913F912F910F900FBE39
:103BB0000F901F90189519BC109208020E94A4192A
:103BC00072CF8091E30087FD02C081E0B2CF83E035
:103BD000B0CF1F920F920FB60F9211242F933F93E5
:103BE0004F935F936F937F938F939F93AF93BF9305
:103BF000CF93DF93EF93FF93D091E900DF70809133
:103C0000EC00C82FC17080FDC0E81092E9008091DF
:103C1000F000877F8093F00078940E942D1E109210
:103C2000E9008091F00088608093F000CD2BCF7088
:103C3000C093E900FF91EF91DF91CF91BF91AF91D8
:103C40009F918F917F916F915F914F913F912F91B4
:103C50000F900FBE0F901F9018951F93CF93DF9377
:103C6000CDB7DEB7AA970FB6F894DEBF0FBECDBFB3
:103C700089E092E0FC0101962091F100208322E08E
:103C800081319207B9F70E94BF198091E80083FF44
:103C900016C18091090290910A029A3008F00FC172
:103CA000E92FF0E0E45BFE4D0C94D820803881F0E1
:103CB000823809F004C180910D028F708093E90071
:103CC0008091EB0085FB882780F91092E90006C0FF
:103CD0008091050290910602911182609091E80016
:103CE000977F9093E8008093F1001092F10080910B
:103CF000E8008E77E0C0882309F4CEC0823009F056
:103D0000DEC080910B028111D1C080910D028F70B5
:103D100009F4D5C08093E9002091EB0020FFC6C0D4
:103D2000933031F48091EB0080628093EB00BEC051
:103D30009091EB0090619093EB0021E030E001C0A6
:103D4000220F8A95EAF72093EA001092EA00809108
:103D5000EB008860EACF8111B2C010910B021F778F
:103D60008091E3008078812B8093E3008091E800CC
:103D7000877F8093E8000E944B1C8091E80080FFC1
:103D8000FCCF8091E30080688093E30082E0111112
:103D900083E08093080293C08058823008F08FC07F
:103DA00080910B0290910C028C3D23E09207A1F5CB
:103DB00083E08A838AE289834FB7F894DE01139601
:103DC00020E03EE051E2E32FF0E050935700E49111
:103DD00020FF03C0E295EF703F5FEF708E2F90E001
:103DE000EA30C0F0C7968D939D932F5F243159F729
:103DF0004FBF8091E800877F8093E8006AE270E01F
:103E0000CE0101960E94621B8091E8008B7780931F
:103E1000E80055C0C096E7CFAE014F5F5F4F60919D
:103E20000D020E94A71ABC01892B09F448C0809199
:103E3000E800877F8093E80089819A810E94BC1BFB
:103E4000E3CF8038E1F58091E800877F8093E80038
:103E5000809104028093F1004ACF811130C090918B
:103E60000B02923060F58091E800877F8093E80034
:103E7000909304020E944B1C80910402882311F04D
:103E800084E005C08091E30087FDFACF81E0809354
:103E900008020E94AB1913C080910B02813079F4A3
:103EA00081E0933009F080E0809306021092E900EF
:103EB0008091E800877F8093E8000E944B1C8091EE
:103EC000E80083FF0AC08091E800877F8093E800C4
:103ED0008091EB0080628093EB00AA960FB6F89475
:103EE000DEBF0FBECDBFDF91CF911F910895089522
:103EF000CF93809108028823A1F0C091E900CF7090
:103F00009091EC00892F817090FD80E8C82B109271
:103F1000E9008091E80083FD0E942D1ECF70C093C0
:103F2000E900CF9108950E949A1F6894B1110C94F2
:103F3000292008950E940E2088F09F5798F0B92FED
:103F40009927B751B0F0E1F0660F771F881F991FCE
:103F50001AF0BA95C9F714C0B13091F00E94282028
:103F6000B1E008950C942820672F782F8827B85F38
:103F700039F0B93FCCF3869577956795B395D9F726
:103F80003EF490958095709561957F4F8F4F9F4F30
:103F90000895E89409C097FB3EF49095809570953C
:103FA00061957F4F8F4F9F4F9923A9F0F92F96E985
:103FB000BB279395F695879577956795B795F111FA
:103FC000F8CFFAF4BB0F11F460FF1BC06F5F7F4F97
:103FD0008F4F9F4F16C0882311F096E911C07723A9
:103FE00021F09EE8872F762F05C0662371F096E8B2
:103FF000862F70E060E02AF09A95660F771F881F81
:10400000DAF7880F9695879597F9089557FD905898
:10401000440F551F59F05F3F71F04795880F97FB8C
:10402000991F61F09F3F79F0879508951216130646
:104030001406551FF2CF4695F1DF08C01616170675
:104040001806991FF1CF86957105610508940895AA
:10405000E894BB2766277727CB0197F908950E943C
:1040600042200C94B3200E94A52038F00E94AC207E
:1040700020F0952311F00C949C200C94A220112484
:104080000C9429200E94062070F3959FC1F3950F90
:1040900050E0551F629FF001729FBB27F00DB11DCC
:1040A000639FAA27F00DB11DAA1F649F6627B00D5C
:1040B000A11D661F829F2227B00DA11D621F739F45
:1040C000B00DA11D621F839FA00D611D221F749F53
:1040D0003327A00D611D231F849F600D211D822F9A
:1040E000762F6A2F11249F5750409AF0F1F08823C1
:1040F0004AF0EE0FFF1FBB1F661F771F881F9150EE
:104100005040A9F79E3F510580F00C949C200C94E0
:1041100029205F3FE4F3983ED4F386957795679521
:10412000B795F795E7959F5FC1F7FE2B880F911D17
:104130009695879597F9089597F99F6780E870E0BD
:1041400060E008959FEF80EC089500240A9416160D
:10415000170618060906089500240A941216130675
:10416000140605060895092E0394000C11F4882303
:1041700052F0BB0F40F4BF2B11F460FF04C06F5F1F
:104180007F4F8F4F9F4F089597FB072E16F4009493
:1041900007D077FD09D00E94DE2007FC05D03EF451
:1041A000909581959F4F0895709561957F4F0895E3
:1041B000EE0FFF1F0590F491E02D0994AA1BBB1B85
:1041C00051E107C0AA1FBB1FA617B70710F0A61B17
:1041D000B70B881F991F5A95A9F780959095BC0138
:1041E000CD010895F999FECF92BD81BDF89A992726
:1041F00080B50895A8E1B0E042E050E00C941A21A7
:10420000262FF999FECF92BD81BDF89A019700B48F
:10421000021639F01FBA20BD0FB6F894FA9AF99A2F
:104220000FBE08950196272F0E9401210C940021B2
:10423000DC01CB01FC01F999FECF06C0F2BDE1BD66
:10424000F89A319600B40D9241505040B8F7089555
:10425000F894FFCF84039003940398039C03A00376
:10426000A403A803AC03B003B403B803BC03C003A6
:10427000C403C803CC03D0031E0A1E0A760A760ABA
:10428000BA0AD60A4E0A4E0AE10A4E0AA90BA90B2F
:10429000140C4E0A4E0A1D0C561E7B1E5F1F7B1E01
:0C42A0005F1FAB1ECC1E5F1F211F2D1FD7
:1042AC00AE012808140A321EB31843192019E91854
:1042BC00B6180131323334353637919293F4F540D8
:1042CC004D3639A10454041E04E50378039103AA66
:0442DC0003C3030015
:00000001FF
